:100000000C945D000C9400000C9400000C94000013
:100010000C9400000C9400000C9400000C94000060
:100020000C9400000C948C000C9400000C940000C4
:100030000C9400000C9400000C9400000C94000040
:100040000C9491000C9400000C9400000C9400009F
:100050000C9400000C9496000C9400000C9400008A
:100060000C9400000C9400000C12120C0000000014
:100070001027E80364000A000100001000011000CE
:10008000010054656D70203D202533640045727277
:100090006F72207265616400537461727465642EBE
:1000A0002E2E000080C00B0000038D000B000B0300
:1000B000980002001603A4000000F894EE27EFBB9E
:1000C000F1E0F5BFE5BF8DE0A2E0BB27ED938A9597
:1000D000E9F780E098E0A0E0B1E0ED930197E9F75F
:1000E000E6EAF0E085919591009761F0A591B591D0
:1000F00005901590BF01F00105900D920197E1F771
:10010000FB01F0CFE0E0EEBBEFEFEDBFE8E0EEBFCC
:10011000C0E0D3E00C941A02EA93E4E6E093B20064
:1001200003C0EA93E0E6E6BDE99118950A92EA93E6
:10013000FA93EFB7EA933090780040907900E4E6C4
:10014000F0E0E315F40528F4E8ECF0E03E164F0685
:1001500008F002C0E1E06E2AE8ECF0E0E315F405F7
:1001600028F4ECE2F1E03E164F0608F002C0E2E0AF
:100170006E2A032C042829F0E4E6F0E03E164F0630
:1001800010F4E4E06E2AECE2F1E0E315F40528F463
:10019000E4EFF1E03E164F0608F002C0E8E06E2AF8
:1001A000E4EFF1E0E315F40528F4ECEBF2E03E16A1
:1001B0004F0608F002C0E0E16E2AE991EFBFF99125
:1001C000E99109901895E0E8E0936100E0E0E093A0
:1001D0006100EFEFE4B9E0E0E5B9E7B9E2E3E8B9DF
:1001E000EFEFEAB9E0E0EBB9E4BDE1E0E5BDE0E660
:1001F000E6BDE0E0E7BDE8BDE0938000E09381006C
:10020000E0938500E0938400E0938700E09386000C
:10021000E0938900E0938800E0938B00E0938A00EC
:10022000E093B600E093B000E7E0E093B100E4E6CD
:10023000E093B200E0E0E093B300E093B400E1E0CB
:10024000E0936E00E0E0E0936F00E1E0E093700087
:10025000E0E0E0936900EDBBE0936800E093C0004C
:10026000E8E0E093C100E6E0E093C200E0E0E09364
:10027000C500E7E6E093C400E0E8E0BFE0E0E0931B
:100280007F00E1E0E0937E00E0E4E0937C00EFE8B3
:10029000E0937A00E0E0E0937B00E0E5ECBDE1E094
:1002A000EDBDE0E0E093BC00A0E10E9498027894EC
:1002B0000895AA931A930A93F894EA81EE0FEE0F29
:1002C000EE0FE0640E2F10E0183068F40A930395E7
:1002D000EC81FD813196EC83FD833197A4910E94DE
:1002E00051021F5FF1CF78940C94020329970E946A
:1002F000420550E0F8940E94CB041E2FACEC0E9403
:100300001405A4E40E941405A8EEB3E00E94C10401
:100310000E94CB04ACEC0E941405AEEB0E941405C5
:1003200030E0393078F4E32FF0E0DE011696EA0F82
:10033000FB1FFF93EF930E940F05AF91BF91EC93CA
:100340003F5FEFCF0E94CB04789430E03930F0F477
:10035000E32FF0E0DE011696AE0FBF1F1C9120E0E8
:10036000283090F4012F152710FF08C0E8E1E52799
:10037000F0E0F595E795E0685E2F01C05695E02F17
:10038000E6951E2F2F5FECCF3F5FE0CF503029F571
:10039000EF81F0E00E942605EF70A1F0EE81E2957A
:1003A000EF70E0954E2FEF81E295E07FE0954E0FE4
:1003B0004E5FEE81F0E00E942805E17009F04F5F8A
:1003C000419508C0EE81E295EF704E2FEF81E295E6
:1003D000E07F4E0F4150E42F01C0EFEF0E9449052E
:1003E0002F960895AA93609771D0A889AF3FC9F05E
:1003F000FE01FA93EA93E2E8F0E0FA93EA93EC89DB
:100400000E942F050E943D0584E00E943A04289630
:10041000E3E0EA93A0E04DD0DE0179D0A1E062D024
:1004200007C0E3E0EA93A0E044D0A0E0B3E06FD0DF
:1004300061960895C8DE2A9A0E94CB04E8E6F0E0AF
:10044000FA93EA93A1E035DFABE0B3E060D04EDF92
:10045000AE2FC8DFA4EFB1E00E94C104F8CFFFCFF8
:10046000AA93EBB1EF70AE2FE881E07FEA2BEBB9F6
:100470008BE18A95F1F7299A8BE18A95F1F7299812
:100480008BE18A95F1F780C0AA93A881E9DFE88122
:10049000E295E883A881E4DF88EC90E00197F1F72A
:1004A00073C0AA93A981F0DF289AA881EDDF28986C
:1004B0000BC0AA93E881F0E0EA5EFC4FE081A981DD
:1004C000AE0FE2DF5980888022960895A2E00E9454
:1004D0008704ACE0D9DFA1E00E948704E0E08E2E23
:1004E0005E2E0895AA93A881AA3011F0571448F0FF
:1004F000E0E0EA938394A82DDCDFA881AA3009F418
:1005000043C05394289AA881BFDF28983DC0BA936E
:10051000AA931A93A981BA81ED91A983BA831E2F58
:10052000E03019F0A12FDEDFF5CF18812396089572
:10053000AA93EAB1E06FEAB9219A209A279A2998FA
:1005400028982F987880E881E058E0931803E88194
:10055000E054E0931903A4E1B0E00E94C1040E94BA
:100560008D040E948D040E948D04A0E279DF80E951
:1005700091E00197F1F7A8E287DFA4E085DFA5E825
:1005800083DFA6E081DFA2DF21960895BA93AA93C4
:100590001A930A93AA81BB8112960E94350530975F
:1005A00059F1AA81BB8114960E9435058F013097BD
:1005B00061F00230E0E01E0798F0F80131978F01FA
:1005C000AA81BB811496ED93FC93AA81BB811296FC
:1005D000ED91FD913196FE93EE933197AC81A0831E
:1005E000AA81BB810E943505FF232AF0ED91FD9180
:1005F0003196FE93EE9306C0AA81BB81EFEFFFEF29
:10060000ED93FC931981088125960895BA93AA93D6
:1006100026970E94420510E0AC85BD85E0E0F0E041
:10062000ED93FC93EA89FB893196EA8BFB8B31973A
:10063000E4912E2FE03009F415C1E12FE03039F4B8
:10064000253211F411E002C00E9495040AC1E13084
:10065000A9F4253219F40E94950402C112E040E089
:1006600000E02D3211F401E0FCC02B3211F44BE21A
:10067000F8C0203211F440E2F4C002C0E23039F494
:1006800050E013E0203311F40068EBC003C0E33006
:1006900009F0E7C0203310F02A3308F007C0AAE0C1
:1006A0005A9F502DE22FE0535E0FDBC0E22FE3365E
:1006B00049F40E949C04E889F989A481AA930E94C4
:1006C000A204CEC0E33741F40E949C040E94A80417
:1006D0000E946E041E2F0AC0E03761F40E949C0441
:1006E0000E94A8040E947A041E2F086002600F77FF
:1006F00030E034C0E43611F0E93611F4046002C091
:10070000E53731F4E0E7F0E0EE83FF8315E00CC05D
:10071000E83511F4086003C0E83709F0A1C0EAE742
:10072000F0E0EE83FF8314E002FF14C00E949C04FB
:100730000E94B204AB85AA233AF4EA85FB850E94A5
:100740002205EA87FB874DE2403011F01F5F01C0B0
:100750000B7F04C00E949C040E94B20400FD11C0E3
:10076000151778F407FF08C002FF04C00B7F242F81
:10077000115001C020E301C020E20E9495045150B5
:10078000EFCF312F01FF17C03030A1F003FF06C0BB
:10079000EE81FF812591EE83FF8305C0AE81BF818D
:1007A0002D91AE83BF830E949504503009F05150C3
:1007B0003150EACF4BC020E3EE81FF810E94390522
:1007C000E887F987EE81FF813296EE83FF83E88523
:1007D000F985AA85BB85AE17BF0750F02F5FA885A6
:1007E000B985EA85FB85EA1BFB0BEA87FB87EFCF20
:1007F0002A3328F003FF02C0295F01C0295D04FDF0
:100800001AC0213320F4A885B985119709F409C0CD
:10081000531710F000FF01C013C020E207FF0BC008
:1008200020E3006102FF07C00B7F4A930E94A204ED
:10083000503009F051500E949504503009F0515049
:100840003150A885B985129708F0B5CF00FF08C0D0
:10085000503031F05150E0E2EA930E94A204F8CF08
:1008600010E0E0CEAC85BD850E9435050E944905AB
:1008700064960895FF92F82E26970E9444050E94E0
:10088000BA04309719F4EFEFFFEF23C0DE0116969C
:100890000E941E058D010E94BA04EE83FF83E0E0F2
:1008A000E887E987DE011A960E941E050E94350539
:1008B000FA93EA931A930A93E6ECF2E0FA93EA9336
:1008C000DE011A96A3DE9F01AE81BF81E0E0EC93CA
:1008D000F9010E944B052A96FF900895BA93AA93B6
:1008E000A991B991EE27FF276D91662311F03196FA
:1008F000FBCF0895BA93AA93AA27BB27E991F99150
:100900000590002011F01196FBCFFD0108950E9483
:100910004402A3E0B0E00C94C104A0E30E943002C2
:1009200080E991E00197F1F708952A93AD85BE859E
:10093000EF85F88909950895E889F9893497E88B56
:10094000F98B0895AD85BE85EF85F88909950895E1
:10095000A889B98914960E943505EE83FF83AE817C
:10096000BF810895A889B98914960E943505EA8740
:10097000FB870895DE011C960E941E050E94350526
:100980000895109639F080EA9FE00197F1F7A89555
:100990001197C9F70895EE2745983D9A80E897E0AA
:1009A0000197F1F73D988BE48A95F1F7359B08950F
:1009B00080E391E00197F1F7359BE1E088E196E073
:1009C0000197F1F708953D9A8BE08A95F1F73D98EC
:1009D0008BE38A95F1F7889435990894E79580E43C
:1009E00091E00197F1F70895E8943D9A8BE08A959C
:1009F000F1F770FD3D9885E48A95F1F7359903C0CC
:100A000070FF03C0089570FF08958CE291E0019794
:100A1000F1F73D988BE18A95F1F76894089568E0C5
:100A2000D2DF6A95E9F708957A2F68E0EE27DCDFD8
:100A300026F477956A95D9F7E39508950024AF0DCC
:100A4000B01D0895F195E195F0400895F595E7956D
:100A5000F595E795F595E795F595E7950895FE2FBA
:100A6000FF0FFF0B6F2F7F2F0895ED91FC911197D2
:100A700008950590F491E02D08957A936A93FA937E
:100A8000EA9308955A934A933A932A931A930A93AE
:100A900008955D814C813B812A81198108810895E7
:00000001FF
